{
  "contractName": "Crowdfund",
  "abi": [
    {
      "inputs": [
        {
          "internalType": "address payable",
          "name": "dest",
          "type": "address"
        },
        {
          "internalType": "uint256",
          "name": "target",
          "type": "uint256"
        },
        {
          "internalType": "uint256",
          "name": "contractExpirationUNIXEpoch",
          "type": "uint256"
        }
      ],
      "stateMutability": "nonpayable",
      "type": "constructor"
    },
    {
      "anonymous": false,
      "inputs": [
        {
          "indexed": false,
          "internalType": "uint256",
          "name": "donorsRefunded",
          "type": "uint256"
        },
        {
          "indexed": false,
          "internalType": "uint256",
          "name": "totalDonors",
          "type": "uint256"
        }
      ],
      "name": "crowdfundRefunded",
      "type": "event"
    },
    {
      "anonymous": false,
      "inputs": [
        {
          "indexed": false,
          "internalType": "address payable",
          "name": "dest",
          "type": "address"
        },
        {
          "indexed": false,
          "internalType": "uint256",
          "name": "amount",
          "type": "uint256"
        }
      ],
      "name": "crowdfundSuccess",
      "type": "event"
    },
    {
      "anonymous": false,
      "inputs": [
        {
          "indexed": false,
          "internalType": "uint256",
          "name": "value",
          "type": "uint256"
        }
      ],
      "name": "donationReceived",
      "type": "event"
    },
    {
      "inputs": [],
      "name": "contractExpiration",
      "outputs": [
        {
          "internalType": "uint256",
          "name": "",
          "type": "uint256"
        }
      ],
      "stateMutability": "view",
      "type": "function"
    },
    {
      "inputs": [],
      "name": "destination",
      "outputs": [
        {
          "internalType": "address payable",
          "name": "",
          "type": "address"
        }
      ],
      "stateMutability": "view",
      "type": "function"
    },
    {
      "inputs": [
        {
          "internalType": "uint256",
          "name": "",
          "type": "uint256"
        }
      ],
      "name": "donors",
      "outputs": [
        {
          "internalType": "address payable",
          "name": "addr",
          "type": "address"
        },
        {
          "internalType": "uint256",
          "name": "donation",
          "type": "uint256"
        }
      ],
      "stateMutability": "view",
      "type": "function"
    },
    {
      "inputs": [],
      "name": "targetAmount",
      "outputs": [
        {
          "internalType": "uint256",
          "name": "",
          "type": "uint256"
        }
      ],
      "stateMutability": "view",
      "type": "function"
    },
    {
      "inputs": [],
      "name": "addDonor",
      "outputs": [],
      "stateMutability": "payable",
      "type": "function"
    },
    {
      "inputs": [],
      "name": "getBalance",
      "outputs": [
        {
          "internalType": "uint256",
          "name": "",
          "type": "uint256"
        }
      ],
      "stateMutability": "view",
      "type": "function"
    },
    {
      "inputs": [],
      "name": "checkExpirationDate",
      "outputs": [],
      "stateMutability": "payable",
      "type": "function"
    },
    {
      "inputs": [],
      "name": "transfer",
      "outputs": [],
      "stateMutability": "payable",
      "type": "function"
    }
  ],
  "bytecode": "0x608060405234801561001057600080fd5b5060405161093338038061093383398181016040528101906100329190610121565b826000806101000a81548173ffffffffffffffffffffffffffffffffffffffff021916908373ffffffffffffffffffffffffffffffffffffffff1602179055508160018190555080600281905550505050610174565b600080fd5b600073ffffffffffffffffffffffffffffffffffffffff82169050919050565b60006100b88261008d565b9050919050565b6100c8816100ad565b81146100d357600080fd5b50565b6000815190506100e5816100bf565b92915050565b6000819050919050565b6100fe816100eb565b811461010957600080fd5b50565b60008151905061011b816100f5565b92915050565b60008060006060848603121561013a57610139610088565b5b6000610148868287016100d6565b93505060206101598682870161010c565b925050604061016a8682870161010c565b9150509250925092565b6107b0806101836000396000f3fe60806040526004361061007b5760003560e01c8063953b8fb81161004e578063953b8fb8146100fd578063a814001f14610128578063b269681d14610153578063e1ba6bfe1461017e5761007b565b806312065fe0146100805780634abfa163146100ab57806379e085a2146100e95780638a4068dd146100f3575b600080fd5b34801561008c57600080fd5b50610095610188565b6040516100a29190610567565b60405180910390f35b3480156100b757600080fd5b506100d260048036038101906100cd91906105b3565b610190565b6040516100e0929190610621565b60405180910390f35b6100f16101e4565b005b6100fb6102c6565b005b34801561010957600080fd5b506101126103c2565b60405161011f9190610567565b60405180910390f35b34801561013457600080fd5b5061013d6103c8565b60405161014a9190610567565b60405180910390f35b34801561015f57600080fd5b506101686103ce565b604051610175919061064a565b60405180910390f35b6101866103f2565b005b600047905090565b600381815481106101a057600080fd5b90600052602060002090600202016000915090508060000160009054906101000a900473ffffffffffffffffffffffffffffffffffffffff16908060010154905082565b600360405180604001604052803373ffffffffffffffffffffffffffffffffffffffff16815260200134815250908060018154018082558091505060019003906000526020600020906002020160009091909190915060008201518160000160006101000a81548173ffffffffffffffffffffffffffffffffffffffff021916908373ffffffffffffffffffffffffffffffffffffffff1602179055506020820151816001015550507f3e26b21e9a69cba873002c76e0e672652d46460bef9f0963d65abc6ef7e8248f346040516102bc9190610567565b60405180910390a1565b60015447106103c05760008060009054906101000a900473ffffffffffffffffffffffffffffffffffffffff1673ffffffffffffffffffffffffffffffffffffffff164760405161031690610696565b60006040518083038185875af1925050503d8060008114610353576040519150601f19603f3d011682016040523d82523d6000602084013e610358565b606091505b5050905080156103be577f7937367083f75cb65d6d5d82efb02e6d87666d7cb9b6ba651cf8af9d5285854d60008054906101000a900473ffffffffffffffffffffffffffffffffffffffff166001546040516103b5929190610621565b60405180910390a15b505b565b60015481565b60025481565b60008054906101000a900473ffffffffffffffffffffffffffffffffffffffff1681565b600254421061054c576000805b60038054905081101561050b57600060038281548110610422576104216106ab565b5b906000526020600020906002020160000160009054906101000a900473ffffffffffffffffffffffffffffffffffffffff1673ffffffffffffffffffffffffffffffffffffffff166003838154811061047e5761047d6106ab565b5b90600052602060002090600202016001015460405161049c90610696565b60006040518083038185875af1925050503d80600081146104d9576040519150601f19603f3d011682016040523d82523d6000602084013e6104de565b606091505b5050905080156104f75782806104f390610709565b9350505b50808061050390610709565b9150506103ff565b507f1599ce54ad90f37eebc39d2ef88b06811c386df1ac6ef93e1d0c637b9782a5ea81600380549050604051610542929190610751565b60405180910390a1505b565b6000819050919050565b6105618161054e565b82525050565b600060208201905061057c6000830184610558565b92915050565b600080fd5b6105908161054e565b811461059b57600080fd5b50565b6000813590506105ad81610587565b92915050565b6000602082840312156105c9576105c8610582565b5b60006105d78482850161059e565b91505092915050565b600073ffffffffffffffffffffffffffffffffffffffff82169050919050565b600061060b826105e0565b9050919050565b61061b81610600565b82525050565b60006040820190506106366000830185610612565b6106436020830184610558565b9392505050565b600060208201905061065f6000830184610612565b92915050565b600081905092915050565b50565b6000610680600083610665565b915061068b82610670565b600082019050919050565b60006106a182610673565b9150819050919050565b7f4e487b7100000000000000000000000000000000000000000000000000000000600052603260045260246000fd5b7f4e487b7100000000000000000000000000000000000000000000000000000000600052601160045260246000fd5b60006107148261054e565b91507fffffffffffffffffffffffffffffffffffffffffffffffffffffffffffffffff8203610746576107456106da565b5b600182019050919050565b60006040820190506107666000830185610558565b6107736020830184610558565b939250505056fea2646970667358221220b5c96b31d147d83e2adb858ba8f200f1de171f97c6d06b82979bf09e9b97e96364736f6c63430008130033",
  "immutableReferences": {},
  "source": "// SPDX-License-Identifier: MIT\npragma solidity >=0.8.0 <0.9.0;\n\ncontract Crowdfund {\n    address payable public destination;\n    uint public targetAmount; \n\n    uint public contractExpiration;\n\n    struct Donor {\n        address payable addr;\n        uint donation;\n    }\n\n    Donor[] public donors;\n\n    constructor (address payable dest, uint target, uint contractExpirationUNIXEpoch) {\n        destination = dest;\n        targetAmount = target;\n        contractExpiration = contractExpirationUNIXEpoch;\n    }\n\n    event donationReceived(uint value);\n\n    function addDonor () public payable {\n        donors.push(Donor(payable(msg.sender), msg.value));        \n\n        emit donationReceived(msg.value);\n    }\n\n    function getBalance() public view returns (uint256) {\n        return address(this).balance;\n    }\n\n    event crowdfundRefunded(uint donorsRefunded, uint totalDonors); \n    function checkExpirationDate() public payable {\n        if (block.timestamp >= contractExpiration) {\n            uint donorsRefunded = 0;\n            for (uint i = 0; i < donors.length; i++) {\n                (bool success, ) = donors[i].addr.call{value: donors[i].donation}(\"\"); \n                if (success)\n                    donorsRefunded++;\n            }\n            emit crowdfundRefunded(donorsRefunded, donors.length);\n        }\n    }\n\n    event crowdfundSuccess(address payable dest, uint amount);\n    function transfer() public payable {\n        if (address(this).balance >= targetAmount) {\n            (bool success, ) = destination.call{value: address(this).balance}(\"\");\n\n            if (success)\n                emit crowdfundSuccess(destination, targetAmount);\n        }\n    }\n}\n",
  "sourcePath": "C:\\Users\\nacho\\OneDrive\\Documents\\ITBA\\Hackaton 2023\\code\\HackITBA\\smartContracts\\contracts\\crowdfunding.sol",
  "compiler": {
    "name": "solc",
    "version": "0.8.19+commit.7dd6d404.Emscripten.clang"
  },
  "schemaVersion": "3.4.13",
  "updatedAt": "2023-04-01T04:35:52.626Z",
  "devdoc": {
    "kind": "dev",
    "methods": {},
    "version": 1
  },
  "userdoc": {
    "kind": "user",
    "methods": {},
    "version": 1
  }
}