{
  "contractName": "Crowdfund",
  "abi": [
    {
      "inputs": [
        {
          "internalType": "address payable",
          "name": "dest",
          "type": "address"
        },
        {
          "internalType": "uint256",
          "name": "target",
          "type": "uint256"
        },
        {
          "internalType": "uint256",
          "name": "contractExpirationUNIXEpoch",
          "type": "uint256"
        }
      ],
      "stateMutability": "nonpayable",
      "type": "constructor"
    },
    {
      "anonymous": false,
      "inputs": [
        {
          "indexed": false,
          "internalType": "uint256",
          "name": "donorsRefunded",
          "type": "uint256"
        },
        {
          "indexed": false,
          "internalType": "uint256",
          "name": "totalDonors",
          "type": "uint256"
        }
      ],
      "name": "crowdfundRefunded",
      "type": "event"
    },
    {
      "anonymous": false,
      "inputs": [
        {
          "indexed": false,
          "internalType": "address payable",
          "name": "dest",
          "type": "address"
        },
        {
          "indexed": false,
          "internalType": "uint256",
          "name": "amount",
          "type": "uint256"
        }
      ],
      "name": "crowdfundSuccess",
      "type": "event"
    },
    {
      "anonymous": false,
      "inputs": [
        {
          "indexed": false,
          "internalType": "uint256",
          "name": "value",
          "type": "uint256"
        }
      ],
      "name": "donationReceived",
      "type": "event"
    },
    {
      "inputs": [],
      "name": "contractExpiration",
      "outputs": [
        {
          "internalType": "uint256",
          "name": "",
          "type": "uint256"
        }
      ],
      "stateMutability": "view",
      "type": "function"
    },
    {
      "inputs": [],
      "name": "destination",
      "outputs": [
        {
          "internalType": "address payable",
          "name": "",
          "type": "address"
        }
      ],
      "stateMutability": "view",
      "type": "function"
    },
    {
      "inputs": [
        {
          "internalType": "uint256",
          "name": "",
          "type": "uint256"
        }
      ],
      "name": "donors",
      "outputs": [
        {
          "internalType": "address payable",
          "name": "addr",
          "type": "address"
        },
        {
          "internalType": "uint256",
          "name": "donation",
          "type": "uint256"
        }
      ],
      "stateMutability": "view",
      "type": "function"
    },
    {
      "inputs": [],
      "name": "targetAmount",
      "outputs": [
        {
          "internalType": "uint256",
          "name": "",
          "type": "uint256"
        }
      ],
      "stateMutability": "view",
      "type": "function"
    },
    {
      "inputs": [],
      "name": "addDonor",
      "outputs": [],
      "stateMutability": "payable",
      "type": "function"
    },
    {
      "inputs": [],
      "name": "getBalance",
      "outputs": [
        {
          "internalType": "uint256",
          "name": "",
          "type": "uint256"
        }
      ],
      "stateMutability": "view",
      "type": "function"
    },
    {
      "inputs": [],
      "name": "checkExpirationDate",
      "outputs": [],
      "stateMutability": "payable",
      "type": "function"
    },
    {
      "inputs": [],
      "name": "transfer",
      "outputs": [],
      "stateMutability": "payable",
      "type": "function"
    }
  ],
  "bytecode": "0x608060405234801561001057600080fd5b5060405161098238038061098283398181016040528101906100329190610121565b826000806101000a81548173ffffffffffffffffffffffffffffffffffffffff021916908373ffffffffffffffffffffffffffffffffffffffff1602179055508160018190555080600281905550505050610174565b600080fd5b600073ffffffffffffffffffffffffffffffffffffffff82169050919050565b60006100b88261008d565b9050919050565b6100c8816100ad565b81146100d357600080fd5b50565b6000815190506100e5816100bf565b92915050565b6000819050919050565b6100fe816100eb565b811461010957600080fd5b50565b60008151905061011b816100f5565b92915050565b60008060006060848603121561013a57610139610088565b5b6000610148868287016100d6565b93505060206101598682870161010c565b925050604061016a8682870161010c565b9150509250925092565b6107ff806101836000396000f3fe60806040526004361061007b5760003560e01c8063953b8fb81161004e578063953b8fb8146100fd578063a814001f14610128578063b269681d14610153578063e1ba6bfe1461017e5761007b565b806312065fe0146100805780634abfa163146100ab57806379e085a2146100e95780638a4068dd146100f3575b600080fd5b34801561008c57600080fd5b50610095610188565b6040516100a29190610574565b60405180910390f35b3480156100b757600080fd5b506100d260048036038101906100cd91906105c0565b610190565b6040516100e092919061062e565b60405180910390f35b6100f16101e4565b005b6100fb6102c6565b005b34801561010957600080fd5b506101126103c2565b60405161011f9190610574565b60405180910390f35b34801561013457600080fd5b5061013d6103c8565b60405161014a9190610574565b60405180910390f35b34801561015f57600080fd5b506101686103ce565b6040516101759190610657565b60405180910390f35b6101866103f2565b005b600047905090565b600381815481106101a057600080fd5b90600052602060002090600202016000915090508060000160009054906101000a900473ffffffffffffffffffffffffffffffffffffffff16908060010154905082565b600360405180604001604052803373ffffffffffffffffffffffffffffffffffffffff16815260200134815250908060018154018082558091505060019003906000526020600020906002020160009091909190915060008201518160000160006101000a81548173ffffffffffffffffffffffffffffffffffffffff021916908373ffffffffffffffffffffffffffffffffffffffff1602179055506020820151816001015550507f3e26b21e9a69cba873002c76e0e672652d46460bef9f0963d65abc6ef7e8248f346040516102bc9190610574565b60405180910390a1565b60015447106103c05760008060009054906101000a900473ffffffffffffffffffffffffffffffffffffffff1673ffffffffffffffffffffffffffffffffffffffff1647604051610316906106a3565b60006040518083038185875af1925050503d8060008114610353576040519150601f19603f3d011682016040523d82523d6000602084013e610358565b606091505b5050905080156103be577f7937367083f75cb65d6d5d82efb02e6d87666d7cb9b6ba651cf8af9d5285854d60008054906101000a900473ffffffffffffffffffffffffffffffffffffffff166001546040516103b592919061062e565b60405180910390a15b505b565b60015481565b60025481565b60008054906101000a900473ffffffffffffffffffffffffffffffffffffffff1681565b6002546103e84261040391906106e7565b10610559576000805b6003805490508110156105185760006003828154811061042f5761042e610729565b5b906000526020600020906002020160000160009054906101000a900473ffffffffffffffffffffffffffffffffffffffff1673ffffffffffffffffffffffffffffffffffffffff166003838154811061048b5761048a610729565b5b9060005260206000209060020201600101546040516104a9906106a3565b60006040518083038185875af1925050503d80600081146104e6576040519150601f19603f3d011682016040523d82523d6000602084013e6104eb565b606091505b50509050801561050457828061050090610758565b9350505b50808061051090610758565b91505061040c565b507f1599ce54ad90f37eebc39d2ef88b06811c386df1ac6ef93e1d0c637b9782a5ea8160038054905060405161054f9291906107a0565b60405180910390a1505b565b6000819050919050565b61056e8161055b565b82525050565b60006020820190506105896000830184610565565b92915050565b600080fd5b61059d8161055b565b81146105a857600080fd5b50565b6000813590506105ba81610594565b92915050565b6000602082840312156105d6576105d561058f565b5b60006105e4848285016105ab565b91505092915050565b600073ffffffffffffffffffffffffffffffffffffffff82169050919050565b6000610618826105ed565b9050919050565b6106288161060d565b82525050565b6000604082019050610643600083018561061f565b6106506020830184610565565b9392505050565b600060208201905061066c600083018461061f565b92915050565b600081905092915050565b50565b600061068d600083610672565b91506106988261067d565b600082019050919050565b60006106ae82610680565b9150819050919050565b7f4e487b7100000000000000000000000000000000000000000000000000000000600052601160045260246000fd5b60006106f28261055b565b91506106fd8361055b565b925082820261070b8161055b565b91508282048414831517610722576107216106b8565b5b5092915050565b7f4e487b7100000000000000000000000000000000000000000000000000000000600052603260045260246000fd5b60006107638261055b565b91507fffffffffffffffffffffffffffffffffffffffffffffffffffffffffffffffff8203610795576107946106b8565b5b600182019050919050565b60006040820190506107b56000830185610565565b6107c26020830184610565565b939250505056fea26469706673582212204a9d886edc1f8e7a4523be2c08f26ae73dad7b3c349415f69d4d3f244705bc6364736f6c63430008130033",
  "immutableReferences": {},
  "source": "// SPDX-License-Identifier: MIT\npragma solidity >=0.8.0 <0.9.0;\n\ncontract Crowdfund {\n    address payable public destination;\n    uint public targetAmount; \n\n    uint public contractExpiration;\n\n    struct Donor {\n        address payable addr;\n        uint donation;\n    }\n\n    Donor[] public donors;\n\n    constructor (address payable dest, uint target, uint contractExpirationUNIXEpoch) {\n        destination = dest;\n        targetAmount = target;\n        contractExpiration = contractExpirationUNIXEpoch;\n    }\n\n    event donationReceived(uint value);\n\n    function addDonor () public payable {\n        donors.push(Donor(payable(msg.sender), msg.value));        \n\n        emit donationReceived(msg.value);\n    }\n\n    function getBalance() public view returns (uint256) {\n        return address(this).balance;\n    }\n\n    event crowdfundRefunded(uint donorsRefunded, uint totalDonors); \n    function checkExpirationDate() public payable {\n        if (block.timestamp * 1000 >= contractExpiration) {\n            uint donorsRefunded = 0;\n            for (uint i = 0; i < donors.length; i++) {\n                (bool success, ) = donors[i].addr.call{value: donors[i].donation}(\"\"); \n                if (success)\n                    donorsRefunded++;\n            }\n            emit crowdfundRefunded(donorsRefunded, donors.length);\n        }\n    }\n\n    event crowdfundSuccess(address payable dest, uint amount);\n    function transfer() public payable {\n        if (address(this).balance >= targetAmount) {\n            (bool success, ) = destination.call{value: address(this).balance}(\"\");\n\n            if (success)\n                emit crowdfundSuccess(destination, targetAmount);\n        }\n    }\n}\n",
  "sourcePath": "C:\\Users\\nacho\\OneDrive\\Documents\\ITBA\\Hackaton 2023\\code\\HackITBA\\smartContracts\\contracts\\crowdfunding.sol",
  "compiler": {
    "name": "solc",
    "version": "0.8.19+commit.7dd6d404.Emscripten.clang"
  },
  "schemaVersion": "3.4.13",
  "updatedAt": "2023-04-02T00:30:02.585Z",
  "devdoc": {
    "kind": "dev",
    "methods": {},
    "version": 1
  },
  "userdoc": {
    "kind": "user",
    "methods": {},
    "version": 1
  }
}